{
  "contractName": "Slots",
  "abi": [
    {
      "inputs": [
        {
          "internalType": "address",
          "name": "LLTH_",
          "type": "address"
        }
      ],
      "stateMutability": "nonpayable",
      "type": "constructor"
    },
    {
      "anonymous": false,
      "inputs": [
        {
          "indexed": true,
          "internalType": "address",
          "name": "previousOwner",
          "type": "address"
        },
        {
          "indexed": true,
          "internalType": "address",
          "name": "newOwner",
          "type": "address"
        }
      ],
      "name": "OwnershipTransferred",
      "type": "event"
    },
    {
      "anonymous": false,
      "inputs": [
        {
          "indexed": false,
          "internalType": "bytes32",
          "name": "requestId",
          "type": "bytes32"
        },
        {
          "indexed": false,
          "internalType": "uint256[]",
          "name": "randomNumbers",
          "type": "uint256[]"
        }
      ],
      "name": "RandomsAreArrived",
      "type": "event"
    },
    {
      "anonymous": false,
      "inputs": [
        {
          "indexed": false,
          "internalType": "address",
          "name": "player",
          "type": "address"
        },
        {
          "indexed": false,
          "internalType": "bytes32",
          "name": "requestId",
          "type": "bytes32"
        }
      ],
      "name": "RequestIdIsCreated",
      "type": "event"
    },
    {
      "inputs": [],
      "name": "LINKToken",
      "outputs": [
        {
          "internalType": "address",
          "name": "",
          "type": "address"
        }
      ],
      "stateMutability": "view",
      "type": "function",
      "constant": true
    },
    {
      "inputs": [],
      "name": "VRFCoordinator",
      "outputs": [
        {
          "internalType": "address",
          "name": "",
          "type": "address"
        }
      ],
      "stateMutability": "view",
      "type": "function",
      "constant": true
    },
    {
      "inputs": [
        {
          "internalType": "address",
          "name": "",
          "type": "address"
        }
      ],
      "name": "addressToRequestId",
      "outputs": [
        {
          "internalType": "bytes32",
          "name": "",
          "type": "bytes32"
        }
      ],
      "stateMutability": "view",
      "type": "function",
      "constant": true
    },
    {
      "inputs": [],
      "name": "betAmount",
      "outputs": [
        {
          "internalType": "uint256",
          "name": "",
          "type": "uint256"
        }
      ],
      "stateMutability": "view",
      "type": "function",
      "constant": true
    },
    {
      "inputs": [
        {
          "internalType": "address",
          "name": "",
          "type": "address"
        }
      ],
      "name": "bets",
      "outputs": [
        {
          "internalType": "uint256",
          "name": "",
          "type": "uint256"
        }
      ],
      "stateMutability": "view",
      "type": "function",
      "constant": true
    },
    {
      "inputs": [],
      "name": "fee",
      "outputs": [
        {
          "internalType": "uint256",
          "name": "",
          "type": "uint256"
        }
      ],
      "stateMutability": "view",
      "type": "function",
      "constant": true
    },
    {
      "inputs": [],
      "name": "keyHash",
      "outputs": [
        {
          "internalType": "bytes32",
          "name": "",
          "type": "bytes32"
        }
      ],
      "stateMutability": "view",
      "type": "function",
      "constant": true
    },
    {
      "inputs": [],
      "name": "maxSymbolValue",
      "outputs": [
        {
          "internalType": "uint256",
          "name": "",
          "type": "uint256"
        }
      ],
      "stateMutability": "view",
      "type": "function",
      "constant": true
    },
    {
      "inputs": [],
      "name": "minSymbolValue",
      "outputs": [
        {
          "internalType": "uint256",
          "name": "",
          "type": "uint256"
        }
      ],
      "stateMutability": "view",
      "type": "function",
      "constant": true
    },
    {
      "inputs": [],
      "name": "multiplier",
      "outputs": [
        {
          "internalType": "uint256",
          "name": "first",
          "type": "uint256"
        },
        {
          "internalType": "uint256",
          "name": "second",
          "type": "uint256"
        },
        {
          "internalType": "uint256",
          "name": "third",
          "type": "uint256"
        },
        {
          "internalType": "uint256",
          "name": "fourth",
          "type": "uint256"
        }
      ],
      "stateMutability": "view",
      "type": "function",
      "constant": true
    },
    {
      "inputs": [],
      "name": "owner",
      "outputs": [
        {
          "internalType": "address",
          "name": "",
          "type": "address"
        }
      ],
      "stateMutability": "view",
      "type": "function",
      "constant": true
    },
    {
      "inputs": [
        {
          "internalType": "address",
          "name": "",
          "type": "address"
        }
      ],
      "name": "prizes",
      "outputs": [
        {
          "internalType": "uint256",
          "name": "",
          "type": "uint256"
        }
      ],
      "stateMutability": "view",
      "type": "function",
      "constant": true
    },
    {
      "inputs": [
        {
          "internalType": "bytes32",
          "name": "requestId",
          "type": "bytes32"
        },
        {
          "internalType": "uint256",
          "name": "randomness",
          "type": "uint256"
        }
      ],
      "name": "rawFulfillRandomness",
      "outputs": [],
      "stateMutability": "nonpayable",
      "type": "function"
    },
    {
      "inputs": [],
      "name": "renounceOwnership",
      "outputs": [],
      "stateMutability": "nonpayable",
      "type": "function"
    },
    {
      "inputs": [
        {
          "internalType": "bytes32",
          "name": "",
          "type": "bytes32"
        }
      ],
      "name": "requestIdToAddress",
      "outputs": [
        {
          "internalType": "address",
          "name": "",
          "type": "address"
        }
      ],
      "stateMutability": "view",
      "type": "function",
      "constant": true
    },
    {
      "inputs": [
        {
          "internalType": "bytes32",
          "name": "",
          "type": "bytes32"
        },
        {
          "internalType": "uint256",
          "name": "",
          "type": "uint256"
        }
      ],
      "name": "requestIdToRandomNumbers",
      "outputs": [
        {
          "internalType": "uint256",
          "name": "",
          "type": "uint256"
        }
      ],
      "stateMutability": "view",
      "type": "function",
      "constant": true
    },
    {
      "inputs": [
        {
          "internalType": "bytes32",
          "name": "",
          "type": "bytes32"
        }
      ],
      "name": "results",
      "outputs": [
        {
          "internalType": "uint256",
          "name": "left",
          "type": "uint256"
        },
        {
          "internalType": "uint256",
          "name": "center",
          "type": "uint256"
        },
        {
          "internalType": "uint256",
          "name": "right",
          "type": "uint256"
        }
      ],
      "stateMutability": "view",
      "type": "function",
      "constant": true
    },
    {
      "inputs": [
        {
          "internalType": "address",
          "name": "newOwner",
          "type": "address"
        }
      ],
      "name": "transferOwnership",
      "outputs": [],
      "stateMutability": "nonpayable",
      "type": "function"
    },
    {
      "inputs": [],
      "name": "getBetAmount",
      "outputs": [
        {
          "internalType": "uint256",
          "name": "",
          "type": "uint256"
        }
      ],
      "stateMutability": "view",
      "type": "function",
      "constant": true
    },
    {
      "inputs": [
        {
          "internalType": "address",
          "name": "player",
          "type": "address"
        }
      ],
      "name": "resultOf",
      "outputs": [
        {
          "internalType": "uint256[]",
          "name": "",
          "type": "uint256[]"
        }
      ],
      "stateMutability": "view",
      "type": "function",
      "constant": true
    },
    {
      "inputs": [
        {
          "internalType": "address",
          "name": "player",
          "type": "address"
        }
      ],
      "name": "betOf",
      "outputs": [
        {
          "internalType": "uint256",
          "name": "",
          "type": "uint256"
        }
      ],
      "stateMutability": "view",
      "type": "function",
      "constant": true
    },
    {
      "inputs": [
        {
          "internalType": "address",
          "name": "player",
          "type": "address"
        }
      ],
      "name": "prizeOf",
      "outputs": [
        {
          "internalType": "uint256",
          "name": "",
          "type": "uint256"
        }
      ],
      "stateMutability": "view",
      "type": "function",
      "constant": true
    },
    {
      "inputs": [
        {
          "internalType": "address",
          "name": "LLTH_",
          "type": "address"
        }
      ],
      "name": "setLLTH",
      "outputs": [],
      "stateMutability": "nonpayable",
      "type": "function"
    },
    {
      "inputs": [
        {
          "internalType": "uint256",
          "name": "first_",
          "type": "uint256"
        },
        {
          "internalType": "uint256",
          "name": "second_",
          "type": "uint256"
        },
        {
          "internalType": "uint256",
          "name": "third_",
          "type": "uint256"
        },
        {
          "internalType": "uint256",
          "name": "fourth_",
          "type": "uint256"
        }
      ],
      "name": "setMultiplier",
      "outputs": [],
      "stateMutability": "nonpayable",
      "type": "function"
    },
    {
      "inputs": [
        {
          "internalType": "uint256",
          "name": "betAmount_",
          "type": "uint256"
        }
      ],
      "name": "setBetAmount",
      "outputs": [],
      "stateMutability": "nonpayable",
      "type": "function"
    },
    {
      "inputs": [
        {
          "internalType": "uint256",
          "name": "maxSymbolValue_",
          "type": "uint256"
        }
      ],
      "name": "setMaxSymbolValue",
      "outputs": [],
      "stateMutability": "nonpayable",
      "type": "function"
    },
    {
      "inputs": [
        {
          "internalType": "uint256",
          "name": "minSymbolValue_",
          "type": "uint256"
        }
      ],
      "name": "setMinSymbolValue",
      "outputs": [],
      "stateMutability": "nonpayable",
      "type": "function"
    },
    {
      "inputs": [
        {
          "internalType": "address",
          "name": "player",
          "type": "address"
        }
      ],
      "name": "getRandomNumber",
      "outputs": [],
      "stateMutability": "nonpayable",
      "type": "function"
    },
    {
      "inputs": [],
      "name": "placeBet",
      "outputs": [],
      "stateMutability": "nonpayable",
      "type": "function"
    },
    {
      "inputs": [
        {
          "internalType": "uint256",
          "name": "amount",
          "type": "uint256"
        }
      ],
      "name": "withdraw",
      "outputs": [],
      "stateMutability": "nonpayable",
      "type": "function"
    }
  ],
  "bytecode": "0x60c060405260066009556001600a55738c7382f9d8f56b33781fe506e897a4f1e2d17255600c60006101000a81548173ffffffffffffffffffffffffffffffffffffffff021916908373ffffffffffffffffffffffffffffffffffffffff16021790555073326c977e6efc84e512bb9c30f76e30c160ed06fb600d60006101000a81548173ffffffffffffffffffffffffffffffffffffffff021916908373ffffffffffffffffffffffffffffffffffffffff160217905550348015620000c557600080fd5b50604051620031e7380380620031e78339818101604052810190620000eb919062000375565b600c60009054906101000a900473ffffffffffffffffffffffffffffffffffffffff16600d60009054906101000a900473ffffffffffffffffffffffffffffffffffffffff1662000151620001456200029260201b60201c565b6200029a60201b60201c565b8173ffffffffffffffffffffffffffffffffffffffff1660a08173ffffffffffffffffffffffffffffffffffffffff1660601b815250508073ffffffffffffffffffffffffffffffffffffffff1660808173ffffffffffffffffffffffffffffffffffffffff1660601b81525050505080600260006101000a81548173ffffffffffffffffffffffffffffffffffffffff021916908373ffffffffffffffffffffffffffffffffffffffff160217905550604051806080016040528060148152602001600581526020016004815260200160018152506003600082015181600001556020820151816001015560408201518160020155606082015181600301559050507f6e75b569a01ef56d18cab6a8e71e6600d6ce853834d4a5748b720d06f878b3a460001b600b81905550655af3107a400060088190555050620003fa565b600033905090565b60008060009054906101000a900473ffffffffffffffffffffffffffffffffffffffff169050816000806101000a81548173ffffffffffffffffffffffffffffffffffffffff021916908373ffffffffffffffffffffffffffffffffffffffff1602179055508173ffffffffffffffffffffffffffffffffffffffff168173ffffffffffffffffffffffffffffffffffffffff167f8be0079c531659141344cd1fd0a4f28419497f9722a3daafe3b4186f6b6457e060405160405180910390a35050565b6000815190506200036f81620003e0565b92915050565b6000602082840312156200038e576200038d620003db565b5b60006200039e848285016200035e565b91505092915050565b6000620003b482620003bb565b9050919050565b600073ffffffffffffffffffffffffffffffffffffffff82169050919050565b600080fd5b620003eb81620003a7565b8114620003f757600080fd5b50565b60805160601c60a05160601c612db36200043460003960008181610fb4015261136001526000818161096201526113240152612db36000f3fe608060405234801561001057600080fd5b50600436106101da5760003560e01c80637c77780611610104578063b35d11bf116100a2578063f2fde38b11610071578063f2fde38b1461056e578063f4e9775d1461058a578063f90f4560146105a8578063fde41e29146105b2576101da565b8063b35d11bf146104d2578063bc64beee14610502578063d24257c014610532578063ddca3f4314610550576101da565b80638da5cb5b116100de5780638da5cb5b1461045e57806394985ddd1461047c578063991cdf8b14610498578063aa528372146104b4576101da565b80637c777806146103e2578063811ebba9146103fe57806389a78f1a1461042e576101da565b80634288d7591161017c5780635f0d34481161014b5780635f0d34481461035a57806361728f391461038a578063623c4047146103a8578063715018a6146103d8576101da565b80634288d759146102ac5780634c6b25b1146102dc5780635017efb61461030e57806353a79d741461033e576101da565b8063217e4382116101b8578063217e4382146102385780632e1a7d4d1461025657806333b60863146102725780633b6dde1314610290576101da565b806317c4caf4146101df578063184f56aa146101fb5780631b3ed72214610217575b600080fd5b6101f960048036038101906101f4919061232d565b6105d0565b005b61021560048036038101906102109190612387565b610656565b005b61021f610726565b60405161022f94939291906128ba565b60405180910390f35b610240610744565b60405161024d919061283f565b60405180910390f35b610270600480360381019061026b919061232d565b61074a565b005b61027a610937565b60405161028791906125e2565b60405180910390f35b6102aa60048036038101906102a59190612266565b61095d565b005b6102c660048036038101906102c19190612266565b610add565b6040516102d3919061283f565b60405180910390f35b6102f660048036038101906102f191906122c0565b610b26565b60405161030593929190612883565b60405180910390f35b61032860048036038101906103239190612266565b610b50565b60405161033591906126e6565b60405180910390f35b6103586004803603810190610353919061232d565b610b68565b005b610374600480360381019061036f9190612266565b610bee565b604051610381919061283f565b60405180910390f35b610392610c37565b60405161039f91906126e6565b60405180910390f35b6103c260048036038101906103bd9190612266565b610c3d565b6040516103cf91906126c4565b60405180910390f35b6103e0610df8565b005b6103fc60048036038101906103f79190612266565b610e80565b005b610418600480360381019061041391906122ed565b610f40565b604051610425919061283f565b60405180910390f35b61044860048036038101906104439190612266565b610f71565b604051610455919061283f565b60405180910390f35b610466610f89565b60405161047391906125e2565b60405180910390f35b610496600480360381019061049191906122ed565b610fb2565b005b6104b260048036038101906104ad919061232d565b61104e565b005b6104bc6110d4565b6040516104c9919061283f565b60405180910390f35b6104ec60048036038101906104e79190612266565b6110da565b6040516104f9919061283f565b60405180910390f35b61051c600480360381019061051791906122c0565b6110f2565b60405161052991906125e2565b60405180910390f35b61053a611125565b604051610547919061283f565b60405180910390f35b61055861112b565b604051610565919061283f565b60405180910390f35b61058860048036038101906105839190612266565b611131565b005b610592611229565b60405161059f91906125e2565b60405180910390f35b6105b061124f565b005b6105ba61130e565b6040516105c7919061283f565b60405180910390f35b6105d8611318565b73ffffffffffffffffffffffffffffffffffffffff166105f6610f89565b73ffffffffffffffffffffffffffffffffffffffff161461064c576040517f08c379a0000000000000000000000000000000000000000000000000000000008152600401610643906127df565b60405180910390fd5b80600a8190555050565b61065e611318565b73ffffffffffffffffffffffffffffffffffffffff1661067c610f89565b73ffffffffffffffffffffffffffffffffffffffff16146106d2576040517f08c379a00000000000000000000000000000000000000000000000000000000081526004016106c9906127df565b60405180910390fd5b60405180608001604052808581526020018481526020018381526020018281525060036000820151816000015560208201518160010155604082015181600201556060820151816003015590505050505050565b60038060000154908060010154908060020154908060030154905084565b60095481565b610752611318565b73ffffffffffffffffffffffffffffffffffffffff16610770610f89565b73ffffffffffffffffffffffffffffffffffffffff16146107c6576040517f08c379a00000000000000000000000000000000000000000000000000000000081526004016107bd906127df565b60405180910390fd5b80600260009054906101000a900473ffffffffffffffffffffffffffffffffffffffff1673ffffffffffffffffffffffffffffffffffffffff166370a08231306040518263ffffffff1660e01b815260040161082291906125e2565b60206040518083038186803b15801561083a57600080fd5b505afa15801561084e573d6000803e3d6000fd5b505050506040513d601f19601f82011682018060405250810190610872919061235a565b101561087d57600080fd5b600260009054906101000a900473ffffffffffffffffffffffffffffffffffffffff1673ffffffffffffffffffffffffffffffffffffffff1663a9059cbb6108c3610f89565b836040518363ffffffff1660e01b81526004016108e192919061265d565b602060405180830381600087803b1580156108fb57600080fd5b505af115801561090f573d6000803e3d6000fd5b505050506040513d601f19601f820116820180604052508101906109339190612293565b5050565b600c60009054906101000a900473ffffffffffffffffffffffffffffffffffffffff1681565b6008547f000000000000000000000000000000000000000000000000000000000000000073ffffffffffffffffffffffffffffffffffffffff166370a08231306040518263ffffffff1660e01b81526004016109b991906125e2565b60206040518083038186803b1580156109d157600080fd5b505afa1580156109e5573d6000803e3d6000fd5b505050506040513d601f19601f82011682018060405250810190610a09919061235a565b1015610a4a576040517f08c379a0000000000000000000000000000000000000000000000000000000008152600401610a419061281f565b60405180910390fd5b6000610a5a600b54600854611320565b905080601160008473ffffffffffffffffffffffffffffffffffffffff1673ffffffffffffffffffffffffffffffffffffffff168152602001908152602001600020819055507faede8a84bd70912adc412a1c86f3aa87a32e75e15b66e8d2c6139982e12777768282604051610ad1929190612634565b60405180910390a15050565b6000600f60008373ffffffffffffffffffffffffffffffffffffffff1673ffffffffffffffffffffffffffffffffffffffff168152602001908152602001600020549050919050565b600e6020528060005260406000206000915090508060000154908060010154908060020154905083565b60116020528060005260406000206000915090505481565b610b70611318565b73ffffffffffffffffffffffffffffffffffffffff16610b8e610f89565b73ffffffffffffffffffffffffffffffffffffffff1614610be4576040517f08c379a0000000000000000000000000000000000000000000000000000000008152600401610bdb906127df565b60405180910390fd5b8060078190555050565b6000601060008373ffffffffffffffffffffffffffffffffffffffff1673ffffffffffffffffffffffffffffffffffffffff168152602001908152602001600020549050919050565b600b5481565b60606000600367ffffffffffffffff811115610c5c57610c5b612be9565b5b604051908082528060200260200182016040528015610c8a5781602001602082028036833780820191505090505b509050600e6000601160008673ffffffffffffffffffffffffffffffffffffffff1673ffffffffffffffffffffffffffffffffffffffff1681526020019081526020016000205481526020019081526020016000206000015481600081518110610cf757610cf6612bba565b5b602002602001018181525050600e6000601160008673ffffffffffffffffffffffffffffffffffffffff1673ffffffffffffffffffffffffffffffffffffffff1681526020019081526020016000205481526020019081526020016000206001015481600181518110610d6d57610d6c612bba565b5b602002602001018181525050600e6000601160008673ffffffffffffffffffffffffffffffffffffffff1673ffffffffffffffffffffffffffffffffffffffff1681526020019081526020016000205481526020019081526020016000206002015481600281518110610de357610de2612bba565b5b60200260200101818152505080915050919050565b610e00611318565b73ffffffffffffffffffffffffffffffffffffffff16610e1e610f89565b73ffffffffffffffffffffffffffffffffffffffff1614610e74576040517f08c379a0000000000000000000000000000000000000000000000000000000008152600401610e6b906127df565b60405180910390fd5b610e7e6000611481565b565b610e88611318565b73ffffffffffffffffffffffffffffffffffffffff16610ea6610f89565b73ffffffffffffffffffffffffffffffffffffffff1614610efc576040517f08c379a0000000000000000000000000000000000000000000000000000000008152600401610ef3906127df565b60405180910390fd5b80600260006101000a81548173ffffffffffffffffffffffffffffffffffffffff021916908373ffffffffffffffffffffffffffffffffffffffff16021790555050565b60136020528160005260406000208181548110610f5c57600080fd5b90600052602060002001600091509150505481565b600f6020528060005260406000206000915090505481565b60008060009054906101000a900473ffffffffffffffffffffffffffffffffffffffff16905090565b7f000000000000000000000000000000000000000000000000000000000000000073ffffffffffffffffffffffffffffffffffffffff163373ffffffffffffffffffffffffffffffffffffffff1614611040576040517f08c379a0000000000000000000000000000000000000000000000000000000008152600401611037906127ff565b60405180910390fd5b61104a8282611545565b5050565b611056611318565b73ffffffffffffffffffffffffffffffffffffffff16611074610f89565b73ffffffffffffffffffffffffffffffffffffffff16146110ca576040517f08c379a00000000000000000000000000000000000000000000000000000000081526004016110c1906127df565b60405180910390fd5b8060098190555050565b600a5481565b60106020528060005260406000206000915090505481565b60126020528060005260406000206000915054906101000a900473ffffffffffffffffffffffffffffffffffffffff1681565b60075481565b60085481565b611139611318565b73ffffffffffffffffffffffffffffffffffffffff16611157610f89565b73ffffffffffffffffffffffffffffffffffffffff16146111ad576040517f08c379a00000000000000000000000000000000000000000000000000000000081526004016111a4906127df565b60405180910390fd5b600073ffffffffffffffffffffffffffffffffffffffff168173ffffffffffffffffffffffffffffffffffffffff16141561121d576040517f08c379a00000000000000000000000000000000000000000000000000000000081526004016112149061279f565b60405180910390fd5b61122681611481565b50565b600d60009054906101000a900473ffffffffffffffffffffffffffffffffffffffff1681565b600260009054906101000a900473ffffffffffffffffffffffffffffffffffffffff1673ffffffffffffffffffffffffffffffffffffffff166323b872dd33306007546040518463ffffffff1660e01b81526004016112b0939291906125fd565b602060405180830381600087803b1580156112ca57600080fd5b505af11580156112de573d6000803e3d6000fd5b505050506040513d601f19601f820116820180604052508101906113029190612293565b5061130c3361095d565b565b6000600754905090565b600033905090565b60007f000000000000000000000000000000000000000000000000000000000000000073ffffffffffffffffffffffffffffffffffffffff16634000aea07f000000000000000000000000000000000000000000000000000000000000000084866000604051602001611394929190612731565b6040516020818303038152906040526040518463ffffffff1660e01b81526004016113c193929190612686565b602060405180830381600087803b1580156113db57600080fd5b505af11580156113ef573d6000803e3d6000fd5b505050506040513d601f19601f820116820180604052508101906114139190612293565b50600061143684600030600160008981526020019081526020016000205461177a565b90506001806000868152602001908152602001600020546114579190612965565b600160008681526020019081526020016000208190555061147884826117b6565b91505092915050565b60008060009054906101000a900473ffffffffffffffffffffffffffffffffffffffff169050816000806101000a81548173ffffffffffffffffffffffffffffffffffffffff021916908373ffffffffffffffffffffffffffffffffffffffff1602179055508173ffffffffffffffffffffffffffffffffffffffff168173ffffffffffffffffffffffffffffffffffffffff167f8be0079c531659141344cd1fd0a4f28419497f9722a3daafe3b4186f6b6457e060405160405180910390a35050565b6000600367ffffffffffffffff81111561156257611561612be9565b5b6040519080825280602002602001820160405280156115905781602001602082028036833780820191505090505b509050600a54600a546009546115a69190612a15565b836115b19190612b2b565b6115bb9190612965565b816000815181106115cf576115ce612bba565b5b6020026020010181815250506000600190505b815181101561166457816000815181106115ff576115fe612bba565b5b60200260200101518160405160200161161992919061285a565b6040516020818303038152906040528051906020012060001c82828151811061164557611644612bba565b5b602002602001018181525050808061165c90612ace565b9150506115e2565b508060136000858152602001908152602001600020908051906020019061168c929190612193565b5060006040518060600160405280836000815181106116ae576116ad612bba565b5b60200260200101518152602001836001815181106116cf576116ce612bba565b5b60200260200101518152602001836002815181106116f0576116ef612bba565b5b6020026020010151815250905080600e600086815260200190815260200160002060008201518160000155602082015181600101556040820151816002015590505061173b846117e9565b7f663048736e211b8fe5fd57d91e01e67b348416962b7ecb7c8520fff361ca0f78848360405161176c929190612701565b60405180910390a150505050565b600084848484604051602001611793949392919061275a565b6040516020818303038152906040528051906020012060001c9050949350505050565b600082826040516020016117cb9291906125b6565b60405160208183030381529060405280519060200120905092915050565b600073ffffffffffffffffffffffffffffffffffffffff166012600083815260200190815260200160002060009054906101000a900473ffffffffffffffffffffffffffffffffffffffff1673ffffffffffffffffffffffffffffffffffffffff16141561188c576040517f08c379a0000000000000000000000000000000000000000000000000000000008152600401611883906127bf565b60405180910390fd5b6006600e6000838152602001908152602001600020600001541480156118c857506006600e600083815260200190815260200160002060010154145b80156118ea57506006600e600083815260200190815260200160002060020154145b15611a2d57600260009054906101000a900473ffffffffffffffffffffffffffffffffffffffff1673ffffffffffffffffffffffffffffffffffffffff1663a9059cbb336119b8600360000154600f60006012600089815260200190815260200160002060009054906101000a900473ffffffffffffffffffffffffffffffffffffffff1673ffffffffffffffffffffffffffffffffffffffff1673ffffffffffffffffffffffffffffffffffffffff1681526020019081526020016000205461217d90919063ffffffff16565b6040518363ffffffff1660e01b81526004016119d592919061265d565b602060405180830381600087803b1580156119ef57600080fd5b505af1158015611a03573d6000803e3d6000fd5b505050506040513d601f19601f82011682018060405250810190611a279190612293565b506120d6565b600e600082815260200190815260200160002060010154600e600083815260200190815260200160002060000154148015611a935750600e600082815260200190815260200160002060020154600e600083815260200190815260200160002060000154145b8015611ab657506006600e60008381526020019081526020016000206000015414155b15611bf957600260009054906101000a900473ffffffffffffffffffffffffffffffffffffffff1673ffffffffffffffffffffffffffffffffffffffff1663a9059cbb33611b84600360010154600f60006012600089815260200190815260200160002060009054906101000a900473ffffffffffffffffffffffffffffffffffffffff1673ffffffffffffffffffffffffffffffffffffffff1673ffffffffffffffffffffffffffffffffffffffff1681526020019081526020016000205461217d90919063ffffffff16565b6040518363ffffffff1660e01b8152600401611ba192919061265d565b602060405180830381600087803b158015611bbb57600080fd5b505af1158015611bcf573d6000803e3d6000fd5b505050506040513d601f19601f82011682018060405250810190611bf39190612293565b506120d5565b6006600e600083815260200190815260200160002060000154148015611c3557506006600e600083815260200190815260200160002060010154145b8015611c5857506006600e60008381526020019081526020016000206002015414155b80611cbe57506006600e600083815260200190815260200160002060000154148015611c9b57506006600e60008381526020019081526020016000206001015414155b8015611cbd57506006600e600083815260200190815260200160002060020154145b5b80611d2457506006600e60008381526020019081526020016000206000015414158015611d0157506006600e600083815260200190815260200160002060010154145b8015611d2357506006600e600083815260200190815260200160002060020154145b5b15611e6757600260009054906101000a900473ffffffffffffffffffffffffffffffffffffffff1673ffffffffffffffffffffffffffffffffffffffff1663a9059cbb33611df2600360020154600f60006012600089815260200190815260200160002060009054906101000a900473ffffffffffffffffffffffffffffffffffffffff1673ffffffffffffffffffffffffffffffffffffffff1673ffffffffffffffffffffffffffffffffffffffff1681526020019081526020016000205461217d90919063ffffffff16565b6040518363ffffffff1660e01b8152600401611e0f92919061265d565b602060405180830381600087803b158015611e2957600080fd5b505af1158015611e3d573d6000803e3d6000fd5b505050506040513d601f19601f82011682018060405250810190611e619190612293565b506120d4565b6006600e600083815260200190815260200160002060000154148015611ea457506006600e60008381526020019081526020016000206001015414155b8015611ec757506006600e60008381526020019081526020016000206002015414155b80611f2e57506006600e60008381526020019081526020016000206000015414158015611f0a57506006600e600083815260200190815260200160002060010154145b8015611f2d57506006600e60008381526020019081526020016000206002015414155b5b80611f9557506006600e60008381526020019081526020016000206000015414158015611f7257506006600e60008381526020019081526020016000206001015414155b8015611f9457506006600e600083815260200190815260200160002060020154145b5b156120d357600260009054906101000a900473ffffffffffffffffffffffffffffffffffffffff1673ffffffffffffffffffffffffffffffffffffffff1663a9059cbb336120626003800154600f60006012600089815260200190815260200160002060009054906101000a900473ffffffffffffffffffffffffffffffffffffffff1673ffffffffffffffffffffffffffffffffffffffff1673ffffffffffffffffffffffffffffffffffffffff1681526020019081526020016000205461217d90919063ffffffff16565b6040518363ffffffff1660e01b815260040161207f92919061265d565b602060405180830381600087803b15801561209957600080fd5b505af11580156120ad573d6000803e3d6000fd5b505050506040513d601f19601f820116820180604052508101906120d19190612293565b505b5b5b5b600f60006012600084815260200190815260200160002060009054906101000a900473ffffffffffffffffffffffffffffffffffffffff1673ffffffffffffffffffffffffffffffffffffffff1673ffffffffffffffffffffffffffffffffffffffff16815260200190815260200160002060009055600e600082815260200190815260200160002060008082016000905560018201600090556002820160009055505050565b6000818361218b91906129bb565b905092915050565b8280548282559060005260206000209081019282156121cf579160200282015b828111156121ce5782518255916020019190600101906121b3565b5b5090506121dc91906121e0565b5090565b5b808211156121f95760008160009055506001016121e1565b5090565b60008135905061220c81612d21565b92915050565b60008151905061222181612d38565b92915050565b60008135905061223681612d4f565b92915050565b60008135905061224b81612d66565b92915050565b60008151905061226081612d66565b92915050565b60006020828403121561227c5761227b612c18565b5b600061228a848285016121fd565b91505092915050565b6000602082840312156122a9576122a8612c18565b5b60006122b784828501612212565b91505092915050565b6000602082840312156122d6576122d5612c18565b5b60006122e484828501612227565b91505092915050565b6000806040838503121561230457612303612c18565b5b600061231285828601612227565b92505060206123238582860161223c565b9150509250929050565b60006020828403121561234357612342612c18565b5b60006123518482850161223c565b91505092915050565b6000602082840312156123705761236f612c18565b5b600061237e84828501612251565b91505092915050565b600080600080608085870312156123a1576123a0612c18565b5b60006123af8782880161223c565b94505060206123c08782880161223c565b93505060406123d18782880161223c565b92505060606123e28782880161223c565b91505092959194509250565b60006123fa8383612581565b60208301905092915050565b61240f81612a49565b82525050565b60006124208261290f565b61242a8185612932565b9350612435836128ff565b8060005b8381101561246657815161244d88826123ee565b975061245883612925565b925050600181019050612439565b5085935050505092915050565b61247c81612a67565b82525050565b61249361248e82612a67565b612b17565b82525050565b60006124a48261291a565b6124ae8185612943565b93506124be818560208601612a9b565b6124c781612c1d565b840191505092915050565b60006124df602683612954565b91506124ea82612c2e565b604082019050919050565b6000612502601e83612954565b915061250d82612c7d565b602082019050919050565b6000612525602083612954565b915061253082612ca6565b602082019050919050565b6000612548601f83612954565b915061255382612ccf565b602082019050919050565b600061256b601083612954565b915061257682612cf8565b602082019050919050565b61258a81612a91565b82525050565b61259981612a91565b82525050565b6125b06125ab82612a91565b612b21565b82525050565b60006125c28285612482565b6020820191506125d2828461259f565b6020820191508190509392505050565b60006020820190506125f76000830184612406565b92915050565b60006060820190506126126000830186612406565b61261f6020830185612406565b61262c6040830184612590565b949350505050565b60006040820190506126496000830185612406565b6126566020830184612473565b9392505050565b60006040820190506126726000830185612406565b61267f6020830184612590565b9392505050565b600060608201905061269b6000830186612406565b6126a86020830185612590565b81810360408301526126ba8184612499565b9050949350505050565b600060208201905081810360008301526126de8184612415565b905092915050565b60006020820190506126fb6000830184612473565b92915050565b60006040820190506127166000830185612473565b81810360208301526127288184612415565b90509392505050565b60006040820190506127466000830185612473565b6127536020830184612590565b9392505050565b600060808201905061276f6000830187612473565b61277c6020830186612590565b6127896040830185612406565b6127966060830184612590565b95945050505050565b600060208201905081810360008301526127b8816124d2565b9050919050565b600060208201905081810360008301526127d8816124f5565b9050919050565b600060208201905081810360008301526127f881612518565b9050919050565b600060208201905081810360008301526128188161253b565b9050919050565b600060208201905081810360008301526128388161255e565b9050919050565b60006020820190506128546000830184612590565b92915050565b600060408201905061286f6000830185612590565b61287c6020830184612590565b9392505050565b60006060820190506128986000830186612590565b6128a56020830185612590565b6128b26040830184612590565b949350505050565b60006080820190506128cf6000830187612590565b6128dc6020830186612590565b6128e96040830185612590565b6128f66060830184612590565b95945050505050565b6000819050602082019050919050565b600081519050919050565b600081519050919050565b6000602082019050919050565b600082825260208201905092915050565b600082825260208201905092915050565b600082825260208201905092915050565b600061297082612a91565b915061297b83612a91565b9250827fffffffffffffffffffffffffffffffffffffffffffffffffffffffffffffffff038211156129b0576129af612b5c565b5b828201905092915050565b60006129c682612a91565b91506129d183612a91565b9250817fffffffffffffffffffffffffffffffffffffffffffffffffffffffffffffffff0483118215151615612a0a57612a09612b5c565b5b828202905092915050565b6000612a2082612a91565b9150612a2b83612a91565b925082821015612a3e57612a3d612b5c565b5b828203905092915050565b6000612a5482612a71565b9050919050565b60008115159050919050565b6000819050919050565b600073ffffffffffffffffffffffffffffffffffffffff82169050919050565b6000819050919050565b60005b83811015612ab9578082015181840152602081019050612a9e565b83811115612ac8576000848401525b50505050565b6000612ad982612a91565b91507fffffffffffffffffffffffffffffffffffffffffffffffffffffffffffffffff821415612b0c57612b0b612b5c565b5b600182019050919050565b6000819050919050565b6000819050919050565b6000612b3682612a91565b9150612b4183612a91565b925082612b5157612b50612b8b565b5b828206905092915050565b7f4e487b7100000000000000000000000000000000000000000000000000000000600052601160045260246000fd5b7f4e487b7100000000000000000000000000000000000000000000000000000000600052601260045260246000fd5b7f4e487b7100000000000000000000000000000000000000000000000000000000600052603260045260246000fd5b7f4e487b7100000000000000000000000000000000000000000000000000000000600052604160045260246000fd5b600080fd5b6000601f19601f8301169050919050565b7f4f776e61626c653a206e6577206f776e657220697320746865207a65726f206160008201527f6464726573730000000000000000000000000000000000000000000000000000602082015250565b7f506c617965722063616e6e6f74206265206e756c6c20616464726573732e0000600082015250565b7f4f776e61626c653a2063616c6c6572206973206e6f7420746865206f776e6572600082015250565b7f4f6e6c7920565246436f6f7264696e61746f722063616e2066756c66696c6c00600082015250565b7f4e6f7420656e6f756768204c494e4b2e00000000000000000000000000000000600082015250565b612d2a81612a49565b8114612d3557600080fd5b50565b612d4181612a5b565b8114612d4c57600080fd5b50565b612d5881612a67565b8114612d6357600080fd5b50565b612d6f81612a91565b8114612d7a57600080fd5b5056fea2646970667358221220050fb30f65455c3703770f43482b413b6ba94653f77cb99800a47a75fadb047164736f6c63430008070033",
  "immutableReferences": {
    "73": [
      {
        "length": 32,
        "start": 2402
      },
      {
        "length": 32,
        "start": 4900
      }
    ],
    "75": [
      {
        "length": 32,
        "start": 4020
      },
      {
        "length": 32,
        "start": 4960
      }
    ]
  },
  "source": "/**\n *   _____________   _______ _____ ___________ ________  ________ _   _ ______\n *  /  __ | ___ \\ \\ / | ___ |_   _|  _  |  _  |  ___|  \\/  |  _  | \\ | |___  /\n *  | /  \\| |_/ /\\ V /| |_/ / | | | | | | | | | |__ |      | | | |  \\| |  / / \n *  | |   |    /  \\ / |  __/  | | | | | | | | |  __|| |\\/| | | | |     | / /  \n *  \\ \\__/| |\\ \\  | | | |     | | \\ \\_/ | |/ /| |___| |  | \\ \\_/ | |\\  |/ /___\n *   \\____\\_| \\_| \\_/ \\_|     \\_/  \\___/|___/ \\____/\\_|  |_/\\___/\\_| \\_\\_____/\n *                                                                          \n *                                                                          \n *  #CryptoDemonz, Slot Machine\n *   \n *  This game has 3 circular, independently operated reels. \n *  A series of 6 different symbols (1, 2, 3, 4, 5, 6) is put on each reel. \n *  The player places a certain amount of bet and starts the round. During the game, \n *  reels are spinning & spinning then they stop at a random symbol. \n *  There are a series of rules on which results payout and how much. \n *  Different combinations offer different payouts. \n *\n */\n\n// SPDX-License-Identifier: MIT\npragma solidity ^0.8.7;\n\nimport \"@openzeppelin/contracts/token/ERC20/IERC20.sol\";\nimport \"@openzeppelin/contracts/token/ERC20/utils/SafeERC20.sol\";\nimport \"@openzeppelin/contracts/utils/Address.sol\";\nimport \"@openzeppelin/contracts/access/Ownable.sol\";\nimport \"@openzeppelin/contracts/utils/math/SafeMath.sol\";\nimport \"@chainlink/contracts/src/v0.8/VRFConsumerBase.sol\";\n\n\ncontract Slots is Ownable, VRFConsumerBase {\n\n    using SafeMath for uint256;\n    using Address for address;\n    \n\n    // three symbols that appears as result or winning result\n    // symbols can be integers between 1 and 6\n    struct Combination {\n        uint256 left;  \n        uint256 center;\n        uint256 right;\n    }\n\n    // each winning result has a multiplier for calculating the player's winning amount\n    struct Multiplier {\n        uint256 first; // multiplier for result: 6-6-6\n        uint256 second; // multiplier for these results: 5-5-5, 4-4-4, 3-3-3, 2-2-2, 1-1-1 \n        uint256 third; // multiplier for these results: 6-6-x, 6-x-6, x-6-6 \n        uint256 fourth; // multiplier for these results: 6-x-x, x-6-x, x-x-6\n    }\n\n\n    // instance of $LLTH token\n    IERC20 internal _LLTH; \n\n\n    // multipliers that are used for calculating the prize\n    Multiplier public multiplier;\n\n\n    // fixed amount of $LLTH tokens that a player can place as bet for a spin\n    uint256 public betAmount; \n\n    // fee required to fulfill a VRF request\n    uint256 public fee;\n\n    // max value on a reel\n    uint256 public maxSymbolValue = 6;\n\n    // min value on a reel\n    uint256 public minSymbolValue = 1;\n \n\n    // public key against which randomness is generated\n    bytes32 public keyHash;\n\n\n    // the address of the smart contract which verifies if the numbers returned from Chainlink are actually random\n    address public VRFCoordinator = 0x8C7382F9D8f56b33781fE506E897a4F1e2d17255;\n\n    // LINK token's address\n    address public LINKToken = 0x326C977E6efc84E512bB9C30f76E30c160eD06FB;\n\n\n    // players' dedicated result by reqest ID that appears in the end of a spin\n    mapping(bytes32 => Combination) public results; \n\n    // players' bet amount in a spin\n    mapping(address => uint256) public bets; \n\n    // players' prize\n    mapping(address => uint256) public prizes;\n\n    // mapping of player's address to requestId \n    mapping(address => bytes32) public addressToRequestId; \n\n    // mapping of requestId to player's address\n    mapping(bytes32 => address) public requestIdToAddress; \n\n    // mapping of requestId to the returned random number\n    mapping(bytes32 => uint256[]) public requestIdToRandomNumbers;\n\n\n    // sending random number for front-end\n    event RandomsAreArrived(bytes32 requestId, uint256[] randomNumbers);\n    \n    // sending request ID for front-end\n    event RequestIdIsCreated(address player, bytes32 requestId);\n\n\n\n    //-------------------------------------------------------------------------\n    // CONSTRUCTOR\n    //-------------------------------------------------------------------------\n\n    constructor(address LLTH_) VRFConsumerBase(VRFCoordinator, LINKToken) {\n        _LLTH = IERC20(LLTH_);\n        multiplier = Multiplier(20, 5, 4, 1);\n        keyHash = 0x6e75b569a01ef56d18cab6a8e71e6600d6ce853834d4a5748b720d06f878b3a4;\n        fee = 0.0001 * 10 ** 18; // 0.0001 LINK\n    }\n    \n\n    //-------------------------------------------------------------------------\n    // VIEW FUNCTIONS\n    //-------------------------------------------------------------------------\n\n    function getBetAmount() external view returns(uint256) {\n        return betAmount;\n    }\n\n    function resultOf(address player) external view returns(uint256[] memory) {\n        uint256[] memory result = new uint256[](3);\n        \n        result[0] = results[addressToRequestId[player]].left;\n        result[1] = results[addressToRequestId[player]].center;\n        result[2] = results[addressToRequestId[player]].right;\n\n        return result;\n    }\n\n    function betOf(address player) external view returns(uint256) {\n        return bets[player];\n    }\n\n    function prizeOf(address player) external view returns(uint256) {\n        return prizes[player];\n    }\n    \n\n    //-------------------------------------------------------------------------\n    // SET FUNCTIONS\n    //-------------------------------------------------------------------------\n    \n    function setLLTH(address LLTH_) external onlyOwner() {                                    \n        _LLTH = IERC20(LLTH_);\n    }\n\n    function setMultiplier(uint256 first_, uint256 second_, uint256 third_, uint256 fourth_) external onlyOwner()  {\n        multiplier = Multiplier(first_, second_, third_, fourth_);\n    }\n\n    function setBetAmount(uint256 betAmount_) external onlyOwner() {\n        betAmount = betAmount_;\n    }\n    \n    function setMaxSymbolValue(uint256 maxSymbolValue_) external onlyOwner() {\n        maxSymbolValue = maxSymbolValue_;\n    }\n\n    function setMinSymbolValue(uint256 minSymbolValue_) external onlyOwner() {\n        minSymbolValue = minSymbolValue_;\n    }\n\n\n    //-------------------------------------------------------------------------\n    // RANDOM NUMBER FUNCTIONS \n    //-------------------------------------------------------------------------\n       \n    function getRandomNumber(address player) public {\n        require(LINK.balanceOf(address(this)) >= fee, \"Not enough LINK.\");\n        bytes32 requestId = requestRandomness(keyHash, fee);\n        addressToRequestId[player] = requestId;\n        \n        emit RequestIdIsCreated(player, requestId);\n    }\n\n    function fulfillRandomness(bytes32 requestId, uint256 randomness) internal override {\n        uint256[] memory randomNumbers = new uint256[](3);\n        randomNumbers[0] = (randomness % (maxSymbolValue-minSymbolValue)) + minSymbolValue; // random number between 1 and 6\n\n        // getting 2 more random numbers out of 1 truly random\n        for (uint256 i = 1; i < randomNumbers.length; i++) {\n            randomNumbers[i] = uint256(keccak256(abi.encode(randomNumbers[0], i))); \n        }\n        requestIdToRandomNumbers[requestId] = randomNumbers; \n        Combination memory result = Combination(randomNumbers[0], randomNumbers[1], randomNumbers[2]);\n        results[requestId] = result;\n        \n        calculatePrize(requestId);\n\n        emit RandomsAreArrived(requestId, randomNumbers);\n    }\n\n\n    //-------------------------------------------------------------------------\n    // INTERNAL FUNCTIONS \n    //-------------------------------------------------------------------------\n\n    function calculatePrize(bytes32 requestId) internal {\n        require(requestIdToAddress[requestId] != address(0), \"Player cannot be null address.\");\n\n        // 6-6-6 \n        // --> Pays: 20x\n        if (results[requestId].left == 6 && \n            results[requestId].center == 6 && \n            results[requestId].right == 6) {\n   \n            _LLTH.transfer(msg.sender, bets[requestIdToAddress[requestId]].mul(multiplier.first));           \n        }\n        // 5-5-5, 4-4-4, 3-3-3, 2-2-2, 1-1-1 \n        // --> Pays: 5x\n        else if (results[requestId].left == results[requestId].center &&\n                 results[requestId].left == results[requestId].right && \n                 results[requestId].left != 6) {\n\n            _LLTH.transfer(msg.sender, bets[requestIdToAddress[requestId]].mul(multiplier.second));\n        }\n        // 6-6-x, 6-x-6, x-6-6 \n        // --> Pays: 4x\n        else if ((results[requestId].left == 6 && \n                  results[requestId].center == 6 &&\n                  results[requestId].right != 6) || \n                  // ----------------------------\n                 (results[requestId].left == 6 && \n                  results[requestId].center != 6 && \n                  results[requestId].right == 6) || \n                  // ----------------------------\n                 (results[requestId].left != 6 && \n                  results[requestId].center == 6 && \n                  results[requestId].right == 6)) {\n\n            _LLTH.transfer(msg.sender, bets[requestIdToAddress[requestId]].mul(multiplier.third));   \n        }\n        // 6-x-x, x-6-x, x-x-6\n        // --> Pays: 1x\n        else if ((results[requestId].left == 6 && \n                  results[requestId].center != 6 &&\n                  results[requestId].right != 6) || \n                  // ----------------------------\n                 (results[requestId].left != 6 && \n                  results[requestId].center == 6 && \n                  results[requestId].right != 6) || \n                  // ----------------------------\n                 (results[requestId].left != 6 && \n                  results[requestId].center != 6 && \n                  results[requestId].right == 6)) {\n\n            _LLTH.transfer(msg.sender, bets[requestIdToAddress[requestId]].mul(multiplier.fourth));\n        }\n\n        delete bets[requestIdToAddress[requestId]];\n        delete results[requestId];\n    } \n\n\n    //-------------------------------------------------------------------------\n    // EXTERNAL FUNCTIONS \n    //-------------------------------------------------------------------------\n\n    function placeBet() external {\n        _LLTH.transferFrom(msg.sender, address(this), betAmount);\n        getRandomNumber(msg.sender);\n    }\n\n    function withdraw(uint256 amount) external onlyOwner() {\n        require(_LLTH.balanceOf(address(this)) >= amount);\n\n        _LLTH.transfer(owner(), amount);\n    }\n\n}",
  "sourcePath": "/home/levi/demonzSlots/contracts/Slots.sol",
  "compiler": {
    "name": "solc",
    "version": "0.8.7+commit.e28d00a7.Emscripten.clang"
  },
  "schemaVersion": "3.4.1",
  "updatedAt": "2021-10-05T08:15:47.325Z",
  "networkType": "ethereum",
  "devdoc": {
    "kind": "dev",
    "methods": {
      "owner()": {
        "details": "Returns the address of the current owner."
      },
      "renounceOwnership()": {
        "details": "Leaves the contract without owner. It will not be possible to call `onlyOwner` functions anymore. Can only be called by the current owner. NOTE: Renouncing ownership will leave the contract without an owner, thereby removing any functionality that is only available to the owner."
      },
      "transferOwnership(address)": {
        "details": "Transfers ownership of the contract to a new account (`newOwner`). Can only be called by the current owner."
      }
    },
    "version": 1
  },
  "userdoc": {
    "kind": "user",
    "methods": {},
    "version": 1
  }
}